{
  "contractName": "myNFT",
  "abi": [
    {
      "inputs": [],
      "stateMutability": "payable",
      "type": "constructor"
    },
    {
      "anonymous": false,
      "inputs": [
        {
          "indexed": true,
          "internalType": "address",
          "name": "owner",
          "type": "address"
        },
        {
          "indexed": true,
          "internalType": "address",
          "name": "approved",
          "type": "address"
        },
        {
          "indexed": true,
          "internalType": "uint256",
          "name": "tokenId",
          "type": "uint256"
        }
      ],
      "name": "Approval",
      "type": "event"
    },
    {
      "anonymous": false,
      "inputs": [
        {
          "indexed": true,
          "internalType": "address",
          "name": "owner",
          "type": "address"
        },
        {
          "indexed": true,
          "internalType": "address",
          "name": "operator",
          "type": "address"
        },
        {
          "indexed": false,
          "internalType": "bool",
          "name": "approved",
          "type": "bool"
        }
      ],
      "name": "ApprovalForAll",
      "type": "event"
    },
    {
      "anonymous": false,
      "inputs": [
        {
          "indexed": true,
          "internalType": "address",
          "name": "previousOwner",
          "type": "address"
        },
        {
          "indexed": true,
          "internalType": "address",
          "name": "newOwner",
          "type": "address"
        }
      ],
      "name": "OwnershipTransferred",
      "type": "event"
    },
    {
      "anonymous": false,
      "inputs": [
        {
          "indexed": true,
          "internalType": "address",
          "name": "from",
          "type": "address"
        },
        {
          "indexed": true,
          "internalType": "address",
          "name": "to",
          "type": "address"
        },
        {
          "indexed": true,
          "internalType": "uint256",
          "name": "tokenId",
          "type": "uint256"
        }
      ],
      "name": "Transfer",
      "type": "event"
    },
    {
      "inputs": [
        {
          "internalType": "address",
          "name": "to",
          "type": "address"
        },
        {
          "internalType": "uint256",
          "name": "tokenId",
          "type": "uint256"
        }
      ],
      "name": "approve",
      "outputs": [],
      "stateMutability": "nonpayable",
      "type": "function"
    },
    {
      "inputs": [
        {
          "internalType": "address",
          "name": "owner",
          "type": "address"
        }
      ],
      "name": "balanceOf",
      "outputs": [
        {
          "internalType": "uint256",
          "name": "",
          "type": "uint256"
        }
      ],
      "stateMutability": "view",
      "type": "function"
    },
    {
      "inputs": [],
      "name": "baseURI",
      "outputs": [
        {
          "internalType": "string",
          "name": "",
          "type": "string"
        }
      ],
      "stateMutability": "view",
      "type": "function"
    },
    {
      "inputs": [],
      "name": "endSaleTime",
      "outputs": [
        {
          "internalType": "uint256",
          "name": "",
          "type": "uint256"
        }
      ],
      "stateMutability": "view",
      "type": "function"
    },
    {
      "inputs": [
        {
          "internalType": "uint256",
          "name": "tokenId",
          "type": "uint256"
        }
      ],
      "name": "getApproved",
      "outputs": [
        {
          "internalType": "address",
          "name": "",
          "type": "address"
        }
      ],
      "stateMutability": "view",
      "type": "function"
    },
    {
      "inputs": [
        {
          "internalType": "address",
          "name": "owner",
          "type": "address"
        },
        {
          "internalType": "address",
          "name": "operator",
          "type": "address"
        }
      ],
      "name": "isApprovedForAll",
      "outputs": [
        {
          "internalType": "bool",
          "name": "",
          "type": "bool"
        }
      ],
      "stateMutability": "view",
      "type": "function"
    },
    {
      "inputs": [],
      "name": "lastTokenId",
      "outputs": [
        {
          "internalType": "uint8",
          "name": "",
          "type": "uint8"
        }
      ],
      "stateMutability": "view",
      "type": "function"
    },
    {
      "inputs": [],
      "name": "name",
      "outputs": [
        {
          "internalType": "string",
          "name": "",
          "type": "string"
        }
      ],
      "stateMutability": "view",
      "type": "function"
    },
    {
      "inputs": [],
      "name": "owner",
      "outputs": [
        {
          "internalType": "address",
          "name": "",
          "type": "address"
        }
      ],
      "stateMutability": "view",
      "type": "function"
    },
    {
      "inputs": [
        {
          "internalType": "uint256",
          "name": "tokenId",
          "type": "uint256"
        }
      ],
      "name": "ownerOf",
      "outputs": [
        {
          "internalType": "address",
          "name": "",
          "type": "address"
        }
      ],
      "stateMutability": "view",
      "type": "function"
    },
    {
      "inputs": [],
      "name": "renounceOwnership",
      "outputs": [],
      "stateMutability": "nonpayable",
      "type": "function"
    },
    {
      "inputs": [
        {
          "internalType": "address",
          "name": "from",
          "type": "address"
        },
        {
          "internalType": "address",
          "name": "to",
          "type": "address"
        },
        {
          "internalType": "uint256",
          "name": "tokenId",
          "type": "uint256"
        }
      ],
      "name": "safeTransferFrom",
      "outputs": [],
      "stateMutability": "nonpayable",
      "type": "function"
    },
    {
      "inputs": [
        {
          "internalType": "address",
          "name": "from",
          "type": "address"
        },
        {
          "internalType": "address",
          "name": "to",
          "type": "address"
        },
        {
          "internalType": "uint256",
          "name": "tokenId",
          "type": "uint256"
        },
        {
          "internalType": "bytes",
          "name": "_data",
          "type": "bytes"
        }
      ],
      "name": "safeTransferFrom",
      "outputs": [],
      "stateMutability": "nonpayable",
      "type": "function"
    },
    {
      "inputs": [
        {
          "internalType": "address",
          "name": "operator",
          "type": "address"
        },
        {
          "internalType": "bool",
          "name": "approved",
          "type": "bool"
        }
      ],
      "name": "setApprovalForAll",
      "outputs": [],
      "stateMutability": "nonpayable",
      "type": "function"
    },
    {
      "inputs": [],
      "name": "startSaleTime",
      "outputs": [
        {
          "internalType": "uint256",
          "name": "",
          "type": "uint256"
        }
      ],
      "stateMutability": "view",
      "type": "function"
    },
    {
      "inputs": [
        {
          "internalType": "bytes4",
          "name": "interfaceId",
          "type": "bytes4"
        }
      ],
      "name": "supportsInterface",
      "outputs": [
        {
          "internalType": "bool",
          "name": "",
          "type": "bool"
        }
      ],
      "stateMutability": "view",
      "type": "function"
    },
    {
      "inputs": [],
      "name": "symbol",
      "outputs": [
        {
          "internalType": "string",
          "name": "",
          "type": "string"
        }
      ],
      "stateMutability": "view",
      "type": "function"
    },
    {
      "inputs": [
        {
          "internalType": "uint256",
          "name": "tokenId",
          "type": "uint256"
        }
      ],
      "name": "tokenURI",
      "outputs": [
        {
          "internalType": "string",
          "name": "",
          "type": "string"
        }
      ],
      "stateMutability": "view",
      "type": "function"
    },
    {
      "inputs": [],
      "name": "totalSupply",
      "outputs": [
        {
          "internalType": "uint8",
          "name": "",
          "type": "uint8"
        }
      ],
      "stateMutability": "view",
      "type": "function"
    },
    {
      "inputs": [
        {
          "internalType": "address",
          "name": "from",
          "type": "address"
        },
        {
          "internalType": "address",
          "name": "to",
          "type": "address"
        },
        {
          "internalType": "uint256",
          "name": "tokenId",
          "type": "uint256"
        }
      ],
      "name": "transferFrom",
      "outputs": [],
      "stateMutability": "nonpayable",
      "type": "function"
    },
    {
      "inputs": [
        {
          "internalType": "address",
          "name": "newOwner",
          "type": "address"
        }
      ],
      "name": "transferOwnership",
      "outputs": [],
      "stateMutability": "nonpayable",
      "type": "function"
    },
    {
      "inputs": [],
      "name": "startTokenSale",
      "outputs": [
        {
          "internalType": "string",
          "name": "",
          "type": "string"
        }
      ],
      "stateMutability": "nonpayable",
      "type": "function"
    },
    {
      "inputs": [
        {
          "internalType": "string",
          "name": "_baseURI",
          "type": "string"
        }
      ],
      "name": "setBaseURI",
      "outputs": [
        {
          "internalType": "string",
          "name": "",
          "type": "string"
        }
      ],
      "stateMutability": "nonpayable",
      "type": "function"
    },
    {
      "inputs": [
        {
          "internalType": "address",
          "name": "to",
          "type": "address"
        },
        {
          "internalType": "string",
          "name": "tokenURI",
          "type": "string"
        }
      ],
      "name": "mintNFT",
      "outputs": [
        {
          "internalType": "uint8",
          "name": "",
          "type": "uint8"
        },
        {
          "internalType": "string",
          "name": "",
          "type": "string"
        }
      ],
      "stateMutability": "nonpayable",
      "type": "function"
    },
    {
      "inputs": [
        {
          "internalType": "uint8",
          "name": "tokenId",
          "type": "uint8"
        },
        {
          "internalType": "uint256",
          "name": "tokenPrice",
          "type": "uint256"
        }
      ],
      "name": "setNFTPrice",
      "outputs": [
        {
          "internalType": "uint8",
          "name": "",
          "type": "uint8"
        },
        {
          "internalType": "string",
          "name": "",
          "type": "string"
        },
        {
          "internalType": "uint256",
          "name": "",
          "type": "uint256"
        }
      ],
      "stateMutability": "nonpayable",
      "type": "function"
    },
    {
      "inputs": [
        {
          "internalType": "uint8",
          "name": "tokenId",
          "type": "uint8"
        }
      ],
      "name": "buyNFT",
      "outputs": [
        {
          "internalType": "string",
          "name": "",
          "type": "string"
        }
      ],
      "stateMutability": "payable",
      "type": "function"
    },
    {
      "inputs": [
        {
          "internalType": "uint8",
          "name": "tokenId",
          "type": "uint8"
        }
      ],
      "name": "vewTokenPrice",
      "outputs": [
        {
          "internalType": "uint256",
          "name": "",
          "type": "uint256"
        }
      ],
      "stateMutability": "view",
      "type": "function"
    }
  ],
  "bytecode": "0x60806040526040518060400160405280600581526020017f4d794e46540000000000000000000000000000000000000000000000000000008152506040518060400160405280600381526020017f4d4e5400000000000000000000000000000000000000000000000000000000008152506200009062000084620000ca60201b60201c565b620000d260201b60201c565b8160019080519060200190620000a892919062000196565b508060029080519060200190620000c192919062000196565b505050620002ab565b600033905090565b60008060009054906101000a900473ffffffffffffffffffffffffffffffffffffffff169050816000806101000a81548173ffffffffffffffffffffffffffffffffffffffff021916908373ffffffffffffffffffffffffffffffffffffffff1602179055508173ffffffffffffffffffffffffffffffffffffffff168173ffffffffffffffffffffffffffffffffffffffff167f8be0079c531659141344cd1fd0a4f28419497f9722a3daafe3b4186f6b6457e060405160405180910390a35050565b828054620001a49062000246565b90600052602060002090601f016020900481019282620001c8576000855562000214565b82601f10620001e357805160ff191683800117855562000214565b8280016001018555821562000214579182015b8281111562000213578251825591602001919060010190620001f6565b5b50905062000223919062000227565b5090565b5b808211156200024257600081600090555060010162000228565b5090565b600060028204905060018216806200025f57607f821691505b602082108114156200027657620002756200027c565b5b50919050565b7f4e487b7100000000000000000000000000000000000000000000000000000000600052602260045260246000fd5b6138b780620002bb6000396000f3fe60806040526004361061019c5760003560e01c8063715018a6116100ec578063b88d4fde1161008a578063eacabe1411610064578063eacabe1414610604578063f2fde38b14610642578063f65577621461066b578063f84ddf0b1461069b5761019c565b8063b88d4fde14610561578063c87b56dd1461058a578063e985e9c5146105c75761019c565b80638da7cf5f116100c65780638da7cf5f146104a357806395d89b41146104e2578063a22cb4651461050d578063a961e9e8146105365761019c565b8063715018a61461043657806379798ccb1461044d5780638da5cb5b146104785761019c565b806342842e0e1161015957806358371ccd1161013357806358371ccd146103665780636352211e146103915780636c0360eb146103ce57806370a08231146103f95761019c565b806342842e0e146102c35780634a6692ed146102ec57806355f804b3146103295761019c565b806301ffc9a7146101a157806306fdde03146101de578063081812fc14610209578063095ea7b31461024657806318160ddd1461026f57806323b872dd1461029a575b600080fd5b3480156101ad57600080fd5b506101c860048036038101906101c391906126d6565b6106c6565b6040516101d59190612bd7565b60405180910390f35b3480156101ea57600080fd5b506101f36107a8565b6040516102009190612bf2565b60405180910390f35b34801561021557600080fd5b50610230600480360381019061022b9190612769565b61083a565b60405161023d9190612b70565b60405180910390f35b34801561025257600080fd5b5061026d6004803603810190610268919061269a565b6108bf565b005b34801561027b57600080fd5b506102846109d7565b6040516102919190612e6f565b60405180910390f35b3480156102a657600080fd5b506102c160048036038101906102bc9190612540565b6109ea565b005b3480156102cf57600080fd5b506102ea60048036038101906102e59190612540565b610a4a565b005b3480156102f857600080fd5b50610313600480360381019061030e9190612792565b610a6a565b6040516103209190612e54565b60405180910390f35b34801561033557600080fd5b50610350600480360381019061034b9190612728565b610a8a565b60405161035d9190612bf2565b60405180910390f35b34801561037257600080fd5b5061037b610b5c565b6040516103889190612e54565b60405180910390f35b34801561039d57600080fd5b506103b860048036038101906103b39190612769565b610b62565b6040516103c59190612b70565b60405180910390f35b3480156103da57600080fd5b506103e3610c14565b6040516103f09190612bf2565b60405180910390f35b34801561040557600080fd5b50610420600480360381019061041b91906124db565b610ca2565b60405161042d9190612e54565b60405180910390f35b34801561044257600080fd5b5061044b610d5a565b005b34801561045957600080fd5b50610462610de2565b60405161046f9190612bf2565b60405180910390f35b34801561048457600080fd5b5061048d610eb9565b60405161049a9190612b70565b60405180910390f35b3480156104af57600080fd5b506104ca60048036038101906104c591906127bb565b610ee2565b6040516104d993929190612eba565b60405180910390f35b3480156104ee57600080fd5b506104f761102d565b6040516105049190612bf2565b60405180910390f35b34801561051957600080fd5b50610534600480360381019061052f919061260a565b6110bf565b005b34801561054257600080fd5b5061054b611240565b6040516105589190612e54565b60405180910390f35b34801561056d57600080fd5b506105886004803603810190610583919061258f565b611246565b005b34801561059657600080fd5b506105b160048036038101906105ac9190612769565b6112a8565b6040516105be9190612bf2565b60405180910390f35b3480156105d357600080fd5b506105ee60048036038101906105e99190612504565b61134f565b6040516105fb9190612bd7565b60405180910390f35b34801561061057600080fd5b5061062b60048036038101906106269190612646565b6113e3565b604051610639929190612e8a565b60405180910390f35b34801561064e57600080fd5b50610669600480360381019061066491906124db565b611655565b005b61068560048036038101906106809190612792565b61174d565b6040516106929190612bf2565b60405180910390f35b3480156106a757600080fd5b506106b0611973565b6040516106bd9190612e6f565b60405180910390f35b60007f80ac58cd000000000000000000000000000000000000000000000000000000007bffffffffffffffffffffffffffffffffffffffffffffffffffffffff1916827bffffffffffffffffffffffffffffffffffffffffffffffffffffffff1916148061079157507f5b5e139f000000000000000000000000000000000000000000000000000000007bffffffffffffffffffffffffffffffffffffffffffffffffffffffff1916827bffffffffffffffffffffffffffffffffffffffffffffffffffffffff1916145b806107a157506107a082611986565b5b9050919050565b6060600180546107b79061316a565b80601f01602080910402602001604051908101604052809291908181526020018280546107e39061316a565b80156108305780601f1061080557610100808354040283529160200191610830565b820191906000526020600020905b81548152906001019060200180831161081357829003601f168201915b5050505050905090565b6000610845826119f0565b610884576040517f08c379a000000000000000000000000000000000000000000000000000000000815260040161087b90612d94565b60405180910390fd5b6005600083815260200190815260200160002060009054906101000a900473ffffffffffffffffffffffffffffffffffffffff169050919050565b60006108ca82610b62565b90508073ffffffffffffffffffffffffffffffffffffffff168373ffffffffffffffffffffffffffffffffffffffff16141561093b576040517f08c379a000000000000000000000000000000000000000000000000000000000815260040161093290612e14565b60405180910390fd5b8073ffffffffffffffffffffffffffffffffffffffff1661095a611a5c565b73ffffffffffffffffffffffffffffffffffffffff161480610989575061098881610983611a5c565b61134f565b5b6109c8576040517f08c379a00000000000000000000000000000000000000000000000000000000081526004016109bf90612d14565b60405180910390fd5b6109d28383611a64565b505050565b600a60009054906101000a900460ff1681565b6109fb6109f5611a5c565b82611b1d565b610a3a576040517f08c379a0000000000000000000000000000000000000000000000000000000008152600401610a3190612e34565b60405180910390fd5b610a45838383611bfb565b505050565b610a6583838360405180602001604052806000815250611246565b505050565b6000600c60008360ff168152602001908152602001600020549050919050565b6060610a94611a5c565b73ffffffffffffffffffffffffffffffffffffffff16610ab2610eb9565b73ffffffffffffffffffffffffffffffffffffffff1614610b08576040517f08c379a0000000000000000000000000000000000000000000000000000000008152600401610aff90612db4565b60405180910390fd5b8160099080519060200190610b1e9291906122ea565b506040518060400160405280601481526020017f426173652055524920697320736574206e6f772e0000000000000000000000008152509050919050565b60085481565b6000806003600084815260200190815260200160002060009054906101000a900473ffffffffffffffffffffffffffffffffffffffff169050600073ffffffffffffffffffffffffffffffffffffffff168173ffffffffffffffffffffffffffffffffffffffff161415610c0b576040517f08c379a0000000000000000000000000000000000000000000000000000000008152600401610c0290612d54565b60405180910390fd5b80915050919050565b60098054610c219061316a565b80601f0160208091040260200160405190810160405280929190818152602001828054610c4d9061316a565b8015610c9a5780601f10610c6f57610100808354040283529160200191610c9a565b820191906000526020600020905b815481529060010190602001808311610c7d57829003601f168201915b505050505081565b60008073ffffffffffffffffffffffffffffffffffffffff168273ffffffffffffffffffffffffffffffffffffffff161415610d13576040517f08c379a0000000000000000000000000000000000000000000000000000000008152600401610d0a90612d34565b60405180910390fd5b600460008373ffffffffffffffffffffffffffffffffffffffff1673ffffffffffffffffffffffffffffffffffffffff168152602001908152602001600020549050919050565b610d62611a5c565b73ffffffffffffffffffffffffffffffffffffffff16610d80610eb9565b73ffffffffffffffffffffffffffffffffffffffff1614610dd6576040517f08c379a0000000000000000000000000000000000000000000000000000000008152600401610dcd90612db4565b60405180910390fd5b610de06000611e57565b565b6060610dec611a5c565b73ffffffffffffffffffffffffffffffffffffffff16610e0a610eb9565b73ffffffffffffffffffffffffffffffffffffffff1614610e60576040517f08c379a0000000000000000000000000000000000000000000000000000000008152600401610e5790612db4565b60405180910390fd5b4260078190555062278d00600754610e789190612fc2565b6008819055506040518060400160405280601b81526020017f546f6b656e2073616c65206861732073746172746564206e6f772e0000000000815250905090565b60008060009054906101000a900473ffffffffffffffffffffffffffffffffffffffff16905090565b600060606000610ef0611a5c565b73ffffffffffffffffffffffffffffffffffffffff16610f0e610eb9565b73ffffffffffffffffffffffffffffffffffffffff1614610f64576040517f08c379a0000000000000000000000000000000000000000000000000000000008152600401610f5b90612db4565b60405180910390fd5b60008560ff1614158015610f8d5750600a60019054906101000a900460ff1660ff168560ff1611155b610fcc576040517f08c379a0000000000000000000000000000000000000000000000000000000008152600401610fc390612d74565b60405180910390fd5b83600c60008760ff1681526020019081526020016000208190555084846040518060400160405280601381526020017f546f6b656e2070726963652073657420746f2000000000000000000000000000815250909250925092509250925092565b60606002805461103c9061316a565b80601f01602080910402602001604051908101604052809291908181526020018280546110689061316a565b80156110b55780601f1061108a576101008083540402835291602001916110b5565b820191906000526020600020905b81548152906001019060200180831161109857829003601f168201915b5050505050905090565b6110c7611a5c565b73ffffffffffffffffffffffffffffffffffffffff168273ffffffffffffffffffffffffffffffffffffffff161415611135576040517f08c379a000000000000000000000000000000000000000000000000000000000815260040161112c90612cb4565b60405180910390fd5b8060066000611142611a5c565b73ffffffffffffffffffffffffffffffffffffffff1673ffffffffffffffffffffffffffffffffffffffff16815260200190815260200160002060008473ffffffffffffffffffffffffffffffffffffffff1673ffffffffffffffffffffffffffffffffffffffff16815260200190815260200160002060006101000a81548160ff0219169083151502179055508173ffffffffffffffffffffffffffffffffffffffff166111ef611a5c565b73ffffffffffffffffffffffffffffffffffffffff167f17307eab39ab6107e8899845ad3d59bd9653f200f220920489ca2b5937696c31836040516112349190612bd7565b60405180910390a35050565b60075481565b611257611251611a5c565b83611b1d565b611296576040517f08c379a000000000000000000000000000000000000000000000000000000000815260040161128d90612e34565b60405180910390fd5b6112a284848484611f1b565b50505050565b60606112b3826119f0565b6112f2576040517f08c379a00000000000000000000000000000000000000000000000000000000081526004016112e990612df4565b60405180910390fd5b60006112fc611f77565b9050600081511161131c5760405180602001604052806000815250611347565b8061132684611f8e565b604051602001611337929190612b4c565b6040516020818303038152906040525b915050919050565b6000600660008473ffffffffffffffffffffffffffffffffffffffff1673ffffffffffffffffffffffffffffffffffffffff16815260200190815260200160002060008373ffffffffffffffffffffffffffffffffffffffff1673ffffffffffffffffffffffffffffffffffffffff16815260200190815260200160002060009054906101000a900460ff16905092915050565b600060606113ef611a5c565b73ffffffffffffffffffffffffffffffffffffffff1661140d610eb9565b73ffffffffffffffffffffffffffffffffffffffff1614611463576040517f08c379a000000000000000000000000000000000000000000000000000000000815260040161145a90612db4565b60405180910390fd5b6064600a60019054906101000a900460ff1660ff1611156114b9576040517f08c379a00000000000000000000000000000000000000000000000000000000081526004016114b090612c14565b60405180910390fd5b600a600181819054906101000a900460ff16809291906114d890613216565b91906101000a81548160ff021916908360ff16021790555050600a600081819054906101000a900460ff168092919061151090613216565b91906101000a81548160ff021916908360ff160217905550506000600a60019054906101000a900460ff16905083600b60008360ff16815260200190815260200160002090805190602001906115679291906122ea565b5033600d60008360ff16815260200190815260200160002060006101000a81548173ffffffffffffffffffffffffffffffffffffffff021916908373ffffffffffffffffffffffffffffffffffffffff160217905550600e60003373ffffffffffffffffffffffffffffffffffffffff1673ffffffffffffffffffffffffffffffffffffffff168152602001908152602001600020600081548092919061160d906131cd565b9190505550806040518060400160405280600681526020017f4d696e746564000000000000000000000000000000000000000000000000000081525092509250509250929050565b61165d611a5c565b73ffffffffffffffffffffffffffffffffffffffff1661167b610eb9565b73ffffffffffffffffffffffffffffffffffffffff16146116d1576040517f08c379a00000000000000000000000000000000000000000000000000000000081526004016116c890612db4565b60405180910390fd5b600073ffffffffffffffffffffffffffffffffffffffff168173ffffffffffffffffffffffffffffffffffffffff161415611741576040517f08c379a000000000000000000000000000000000000000000000000000000000815260040161173890612c74565b60405180910390fd5b61174a81611e57565b50565b6060600060075414158015611763575042600754105b6117a2576040517f08c379a000000000000000000000000000000000000000000000000000000000815260040161179990612c34565b60405180910390fd5b600c60008360ff168152602001908152602001600020543410156117fb576040517f08c379a00000000000000000000000000000000000000000000000000000000081526004016117f290612cf4565b60405180910390fd5b6000600d60008460ff16815260200190815260200160002060009054906101000a900473ffffffffffffffffffffffffffffffffffffffff16905033600d60008560ff16815260200190815260200160002060006101000a81548173ffffffffffffffffffffffffffffffffffffffff021916908373ffffffffffffffffffffffffffffffffffffffff160217905550600e60003373ffffffffffffffffffffffffffffffffffffffff1673ffffffffffffffffffffffffffffffffffffffff16815260200190815260200160002060008154809291906118db906131cd565b9190505550600e60008273ffffffffffffffffffffffffffffffffffffffff1673ffffffffffffffffffffffffffffffffffffffff168152602001908152602001600020600081548092919061193090613140565b91905055506040518060400160405280600a81526020017f546f6b656e20736f6c6400000000000000000000000000000000000000000000815250915050919050565b600a60019054906101000a900460ff1681565b60007f01ffc9a7000000000000000000000000000000000000000000000000000000007bffffffffffffffffffffffffffffffffffffffffffffffffffffffff1916827bffffffffffffffffffffffffffffffffffffffffffffffffffffffff1916149050919050565b60008073ffffffffffffffffffffffffffffffffffffffff166003600084815260200190815260200160002060009054906101000a900473ffffffffffffffffffffffffffffffffffffffff1673ffffffffffffffffffffffffffffffffffffffff1614159050919050565b600033905090565b816005600083815260200190815260200160002060006101000a81548173ffffffffffffffffffffffffffffffffffffffff021916908373ffffffffffffffffffffffffffffffffffffffff160217905550808273ffffffffffffffffffffffffffffffffffffffff16611ad783610b62565b73ffffffffffffffffffffffffffffffffffffffff167f8c5be1e5ebec7d5bd14f71427d1e84f3dd0314c0f7b2291e5b200ac8c7c3b92560405160405180910390a45050565b6000611b28826119f0565b611b67576040517f08c379a0000000000000000000000000000000000000000000000000000000008152600401611b5e90612cd4565b60405180910390fd5b6000611b7283610b62565b90508073ffffffffffffffffffffffffffffffffffffffff168473ffffffffffffffffffffffffffffffffffffffff161480611be157508373ffffffffffffffffffffffffffffffffffffffff16611bc98461083a565b73ffffffffffffffffffffffffffffffffffffffff16145b80611bf25750611bf1818561134f565b5b91505092915050565b8273ffffffffffffffffffffffffffffffffffffffff16611c1b82610b62565b73ffffffffffffffffffffffffffffffffffffffff1614611c71576040517f08c379a0000000000000000000000000000000000000000000000000000000008152600401611c6890612dd4565b60405180910390fd5b600073ffffffffffffffffffffffffffffffffffffffff168273ffffffffffffffffffffffffffffffffffffffff161415611ce1576040517f08c379a0000000000000000000000000000000000000000000000000000000008152600401611cd890612c94565b60405180910390fd5b611cec83838361213b565b611cf7600082611a64565b6001600460008573ffffffffffffffffffffffffffffffffffffffff1673ffffffffffffffffffffffffffffffffffffffff1681526020019081526020016000206000828254611d479190613049565b925050819055506001600460008473ffffffffffffffffffffffffffffffffffffffff1673ffffffffffffffffffffffffffffffffffffffff1681526020019081526020016000206000828254611d9e9190612fc2565b92505081905550816003600083815260200190815260200160002060006101000a81548173ffffffffffffffffffffffffffffffffffffffff021916908373ffffffffffffffffffffffffffffffffffffffff160217905550808273ffffffffffffffffffffffffffffffffffffffff168473ffffffffffffffffffffffffffffffffffffffff167fddf252ad1be2c89b69c2b068fc378daa952ba7f163c4a11628f55a4df523b3ef60405160405180910390a4505050565b60008060009054906101000a900473ffffffffffffffffffffffffffffffffffffffff169050816000806101000a81548173ffffffffffffffffffffffffffffffffffffffff021916908373ffffffffffffffffffffffffffffffffffffffff1602179055508173ffffffffffffffffffffffffffffffffffffffff168173ffffffffffffffffffffffffffffffffffffffff167f8be0079c531659141344cd1fd0a4f28419497f9722a3daafe3b4186f6b6457e060405160405180910390a35050565b611f26848484611bfb565b611f3284848484612140565b611f71576040517f08c379a0000000000000000000000000000000000000000000000000000000008152600401611f6890612c54565b60405180910390fd5b50505050565b606060405180602001604052806000815250905090565b60606000821415611fd6576040518060400160405280600181526020017f30000000000000000000000000000000000000000000000000000000000000008152509050612136565b600082905060005b60008214612008578080611ff1906131cd565b915050600a826120019190613018565b9150611fde565b60008167ffffffffffffffff81111561204a577f4e487b7100000000000000000000000000000000000000000000000000000000600052604160045260246000fd5b6040519080825280601f01601f19166020018201604052801561207c5781602001600182028036833780820191505090505b5090505b6000851461212f576001826120959190613049565b9150600a856120a49190613240565b60306120b09190612fc2565b60f81b8183815181106120ec577f4e487b7100000000000000000000000000000000000000000000000000000000600052603260045260246000fd5b60200101907effffffffffffffffffffffffffffffffffffffffffffffffffffffffffffff1916908160001a905350600a856121289190613018565b9450612080565b8093505050505b919050565b505050565b60006121618473ffffffffffffffffffffffffffffffffffffffff166122d7565b156122ca578373ffffffffffffffffffffffffffffffffffffffff1663150b7a0261218a611a5c565b8786866040518563ffffffff1660e01b81526004016121ac9493929190612b8b565b602060405180830381600087803b1580156121c657600080fd5b505af19250505080156121f757506040513d601f19601f820116820180604052508101906121f491906126ff565b60015b61227a573d8060008114612227576040519150601f19603f3d011682016040523d82523d6000602084013e61222c565b606091505b50600081511415612272576040517f08c379a000000000000000000000000000000000000000000000000000000000815260040161226990612c54565b60405180910390fd5b805181602001fd5b63150b7a0260e01b7bffffffffffffffffffffffffffffffffffffffffffffffffffffffff1916817bffffffffffffffffffffffffffffffffffffffffffffffffffffffff1916149150506122cf565b600190505b949350505050565b600080823b905060008111915050919050565b8280546122f69061316a565b90600052602060002090601f016020900481019282612318576000855561235f565b82601f1061233157805160ff191683800117855561235f565b8280016001018555821561235f579182015b8281111561235e578251825591602001919060010190612343565b5b50905061236c9190612370565b5090565b5b80821115612389576000816000905550600101612371565b5090565b60006123a061239b84612f1d565b612ef8565b9050828152602081018484840111156123b857600080fd5b6123c38482856130fe565b509392505050565b60006123de6123d984612f4e565b612ef8565b9050828152602081018484840111156123f657600080fd5b6124018482856130fe565b509392505050565b6000813590506124188161380e565b92915050565b60008135905061242d81613825565b92915050565b6000813590506124428161383c565b92915050565b6000815190506124578161383c565b92915050565b600082601f83011261246e57600080fd5b813561247e84826020860161238d565b91505092915050565b600082601f83011261249857600080fd5b81356124a88482602086016123cb565b91505092915050565b6000813590506124c081613853565b92915050565b6000813590506124d58161386a565b92915050565b6000602082840312156124ed57600080fd5b60006124fb84828501612409565b91505092915050565b6000806040838503121561251757600080fd5b600061252585828601612409565b925050602061253685828601612409565b9150509250929050565b60008060006060848603121561255557600080fd5b600061256386828701612409565b935050602061257486828701612409565b9250506040612585868287016124b1565b9150509250925092565b600080600080608085870312156125a557600080fd5b60006125b387828801612409565b94505060206125c487828801612409565b93505060406125d5878288016124b1565b925050606085013567ffffffffffffffff8111156125f257600080fd5b6125fe8782880161245d565b91505092959194509250565b6000806040838503121561261d57600080fd5b600061262b85828601612409565b925050602061263c8582860161241e565b9150509250929050565b6000806040838503121561265957600080fd5b600061266785828601612409565b925050602083013567ffffffffffffffff81111561268457600080fd5b61269085828601612487565b9150509250929050565b600080604083850312156126ad57600080fd5b60006126bb85828601612409565b92505060206126cc858286016124b1565b9150509250929050565b6000602082840312156126e857600080fd5b60006126f684828501612433565b91505092915050565b60006020828403121561271157600080fd5b600061271f84828501612448565b91505092915050565b60006020828403121561273a57600080fd5b600082013567ffffffffffffffff81111561275457600080fd5b61276084828501612487565b91505092915050565b60006020828403121561277b57600080fd5b6000612789848285016124b1565b91505092915050565b6000602082840312156127a457600080fd5b60006127b2848285016124c6565b91505092915050565b600080604083850312156127ce57600080fd5b60006127dc858286016124c6565b92505060206127ed858286016124b1565b9150509250929050565b6128008161307d565b82525050565b61280f8161308f565b82525050565b600061282082612f7f565b61282a8185612f95565b935061283a81856020860161310d565b6128438161332d565b840191505092915050565b600061285982612f8a565b6128638185612fa6565b935061287381856020860161310d565b61287c8161332d565b840191505092915050565b600061289282612f8a565b61289c8185612fb7565b93506128ac81856020860161310d565b80840191505092915050565b60006128c5602383612fa6565b91506128d08261333e565b604082019050919050565b60006128e8601f83612fa6565b91506128f38261338d565b602082019050919050565b600061290b603283612fa6565b9150612916826133b6565b604082019050919050565b600061292e602683612fa6565b915061293982613405565b604082019050919050565b6000612951602483612fa6565b915061295c82613454565b604082019050919050565b6000612974601983612fa6565b915061297f826134a3565b602082019050919050565b6000612997602c83612fa6565b91506129a2826134cc565b604082019050919050565b60006129ba601683612fa6565b91506129c58261351b565b602082019050919050565b60006129dd603883612fa6565b91506129e882613544565b604082019050919050565b6000612a00602a83612fa6565b9150612a0b82613593565b604082019050919050565b6000612a23602983612fa6565b9150612a2e826135e2565b604082019050919050565b6000612a46601583612fa6565b9150612a5182613631565b602082019050919050565b6000612a69602c83612fa6565b9150612a748261365a565b604082019050919050565b6000612a8c602083612fa6565b9150612a97826136a9565b602082019050919050565b6000612aaf602983612fa6565b9150612aba826136d2565b604082019050919050565b6000612ad2602f83612fa6565b9150612add82613721565b604082019050919050565b6000612af5602183612fa6565b9150612b0082613770565b604082019050919050565b6000612b18603183612fa6565b9150612b23826137bf565b604082019050919050565b612b37816130e7565b82525050565b612b46816130f1565b82525050565b6000612b588285612887565b9150612b648284612887565b91508190509392505050565b6000602082019050612b8560008301846127f7565b92915050565b6000608082019050612ba060008301876127f7565b612bad60208301866127f7565b612bba6040830185612b2e565b8181036060830152612bcc8184612815565b905095945050505050565b6000602082019050612bec6000830184612806565b92915050565b60006020820190508181036000830152612c0c818461284e565b905092915050565b60006020820190508181036000830152612c2d816128b8565b9050919050565b60006020820190508181036000830152612c4d816128db565b9050919050565b60006020820190508181036000830152612c6d816128fe565b9050919050565b60006020820190508181036000830152612c8d81612921565b9050919050565b60006020820190508181036000830152612cad81612944565b9050919050565b60006020820190508181036000830152612ccd81612967565b9050919050565b60006020820190508181036000830152612ced8161298a565b9050919050565b60006020820190508181036000830152612d0d816129ad565b9050919050565b60006020820190508181036000830152612d2d816129d0565b9050919050565b60006020820190508181036000830152612d4d816129f3565b9050919050565b60006020820190508181036000830152612d6d81612a16565b9050919050565b60006020820190508181036000830152612d8d81612a39565b9050919050565b60006020820190508181036000830152612dad81612a5c565b9050919050565b60006020820190508181036000830152612dcd81612a7f565b9050919050565b60006020820190508181036000830152612ded81612aa2565b9050919050565b60006020820190508181036000830152612e0d81612ac5565b9050919050565b60006020820190508181036000830152612e2d81612ae8565b9050919050565b60006020820190508181036000830152612e4d81612b0b565b9050919050565b6000602082019050612e696000830184612b2e565b92915050565b6000602082019050612e846000830184612b3d565b92915050565b6000604082019050612e9f6000830185612b3d565b8181036020830152612eb1818461284e565b90509392505050565b6000606082019050612ecf6000830186612b3d565b8181036020830152612ee1818561284e565b9050612ef06040830184612b2e565b949350505050565b6000612f02612f13565b9050612f0e828261319c565b919050565b6000604051905090565b600067ffffffffffffffff821115612f3857612f376132fe565b5b612f418261332d565b9050602081019050919050565b600067ffffffffffffffff821115612f6957612f686132fe565b5b612f728261332d565b9050602081019050919050565b600081519050919050565b600081519050919050565b600082825260208201905092915050565b600082825260208201905092915050565b600081905092915050565b6000612fcd826130e7565b9150612fd8836130e7565b9250827fffffffffffffffffffffffffffffffffffffffffffffffffffffffffffffffff0382111561300d5761300c613271565b5b828201905092915050565b6000613023826130e7565b915061302e836130e7565b92508261303e5761303d6132a0565b5b828204905092915050565b6000613054826130e7565b915061305f836130e7565b92508282101561307257613071613271565b5b828203905092915050565b6000613088826130c7565b9050919050565b60008115159050919050565b60007fffffffff0000000000000000000000000000000000000000000000000000000082169050919050565b600073ffffffffffffffffffffffffffffffffffffffff82169050919050565b6000819050919050565b600060ff82169050919050565b82818337600083830152505050565b60005b8381101561312b578082015181840152602081019050613110565b8381111561313a576000848401525b50505050565b600061314b826130e7565b9150600082141561315f5761315e613271565b5b600182039050919050565b6000600282049050600182168061318257607f821691505b60208210811415613196576131956132cf565b5b50919050565b6131a58261332d565b810181811067ffffffffffffffff821117156131c4576131c36132fe565b5b80604052505050565b60006131d8826130e7565b91507fffffffffffffffffffffffffffffffffffffffffffffffffffffffffffffffff82141561320b5761320a613271565b5b600182019050919050565b6000613221826130f1565b915060ff82141561323557613234613271565b5b600182019050919050565b600061324b826130e7565b9150613256836130e7565b925082613266576132656132a0565b5b828206905092915050565b7f4e487b7100000000000000000000000000000000000000000000000000000000600052601160045260246000fd5b7f4e487b7100000000000000000000000000000000000000000000000000000000600052601260045260246000fd5b7f4e487b7100000000000000000000000000000000000000000000000000000000600052602260045260246000fd5b7f4e487b7100000000000000000000000000000000000000000000000000000000600052604160045260246000fd5b6000601f19601f8301169050919050565b7f596f75206861766520616c7265616479206d696e7465642031303020746f6b6560008201527f6e732e0000000000000000000000000000000000000000000000000000000000602082015250565b7f546f6b656e2073616c6520686173206e6f742073746172746564207965742e00600082015250565b7f4552433732313a207472616e7366657220746f206e6f6e20455243373231526560008201527f63656976657220696d706c656d656e7465720000000000000000000000000000602082015250565b7f4f776e61626c653a206e6577206f776e657220697320746865207a65726f206160008201527f6464726573730000000000000000000000000000000000000000000000000000602082015250565b7f4552433732313a207472616e7366657220746f20746865207a65726f2061646460008201527f7265737300000000000000000000000000000000000000000000000000000000602082015250565b7f4552433732313a20617070726f766520746f2063616c6c657200000000000000600082015250565b7f4552433732313a206f70657261746f7220717565727920666f72206e6f6e657860008201527f697374656e7420746f6b656e0000000000000000000000000000000000000000602082015250565b7f596f7572207061796d656e742069732073686f72742e00000000000000000000600082015250565b7f4552433732313a20617070726f76652063616c6c6572206973206e6f74206f7760008201527f6e6572206e6f7220617070726f76656420666f7220616c6c0000000000000000602082015250565b7f4552433732313a2062616c616e636520717565727920666f7220746865207a6560008201527f726f206164647265737300000000000000000000000000000000000000000000602082015250565b7f4552433732313a206f776e657220717565727920666f72206e6f6e657869737460008201527f656e7420746f6b656e0000000000000000000000000000000000000000000000602082015250565b7f546f6b656e20646f6573206e6f742065786973742e0000000000000000000000600082015250565b7f4552433732313a20617070726f76656420717565727920666f72206e6f6e657860008201527f697374656e7420746f6b656e0000000000000000000000000000000000000000602082015250565b7f4f776e61626c653a2063616c6c6572206973206e6f7420746865206f776e6572600082015250565b7f4552433732313a207472616e73666572206f6620746f6b656e2074686174206960008201527f73206e6f74206f776e0000000000000000000000000000000000000000000000602082015250565b7f4552433732314d657461646174613a2055524920717565727920666f72206e6f60008201527f6e6578697374656e7420746f6b656e0000000000000000000000000000000000602082015250565b7f4552433732313a20617070726f76616c20746f2063757272656e74206f776e6560008201527f7200000000000000000000000000000000000000000000000000000000000000602082015250565b7f4552433732313a207472616e736665722063616c6c6572206973206e6f74206f60008201527f776e6572206e6f7220617070726f766564000000000000000000000000000000602082015250565b6138178161307d565b811461382257600080fd5b50565b61382e8161308f565b811461383957600080fd5b50565b6138458161309b565b811461385057600080fd5b50565b61385c816130e7565b811461386757600080fd5b50565b613873816130f1565b811461387e57600080fd5b5056fea26469706673582212208dfb53bcf393db9f244de90b0b329f998f0ae20b16428559d94414202c2e350464736f6c63430008040033",
  "immutableReferences": {},
  "source": "//SPDX-License-Identifier: MIT\r\npragma solidity ^0.8.4;\r\n\r\n/*\r\nCreate an ERC721 Token with the following requirements\r\n    1. user can only buy tokens when the sale is started\r\n    2. the sale should be ended within 30 days\r\n    3. the owner can set base URI\r\n    4. the owner can set the price of NFT\r\n    5. NFT minting hard limit is 100\r\nNote:\r\nyou can use this link as a base URI = \"https://floydnft.com/token/;\"\r\nthe contract should be deployed on any ethereum test network by using a hardhat or truffle\r\n*/\r\n\r\n///dev Nauman Tayyab\r\n\r\nimport \"../node_modules/@openzeppelin/contracts/token/ERC721/ERC721.sol\";\r\nimport \"../node_modules/@openzeppelin/contracts/access/Ownable.sol\";\r\n\r\n\r\ncontract myNFT is Ownable, ERC721 {\r\n\r\n\r\n    uint public startSaleTime;\r\n    uint public endSaleTime;\r\n    string public baseURI;\r\n    uint8 public totalSupply;\r\n    uint8 public lastTokenId;\r\n\r\n    mapping(uint => string) URIlist;\r\n    mapping(uint => uint) internal priceList;\r\n\r\n    // Mapping from token ID to owner address\r\n    mapping(uint256 => address) private _owners;\r\n\r\n    // Mapping owner address to token count\r\n    mapping(address => uint256) private _balances;\r\n\r\n    // Mapping from token ID to approved address\r\n    mapping (uint256 => address) private _tokenApprovals;\r\n\r\n/*\r\n   constructor (\r\n        string memory _tokenName,\r\n        string memory _tokenSymbol) payable ERC721(_tokenName,_tokenSymbol){\r\n            _tokenName = MyNFT;\r\n            _tokenSymbol = MNT;\r\n    }\r\n*/\r\n\r\n   constructor() payable ERC721(\"MyNFT\", \"MNT\") {}\r\n\r\n\r\n    function startTokenSale() public onlyOwner returns(string memory){\r\n        startSaleTime = block.timestamp;\r\n        endSaleTime = startSaleTime + 30 days;\r\n        return(\"Token sale has started now.\");\r\n    }\r\n\r\n   /// 3. the owner can set base URI\r\n    function setBaseURI(string memory _baseURI) public onlyOwner returns(string memory){\r\n        baseURI = _baseURI;\r\n        return(\"Base URI is set now.\");\r\n    }\r\n\r\n    //ttokenURI: https://bafkreigkygjq6pywis7d22miplcbvdllfvjec3bekomspyoiwpbttopztq.ipfs.dweb.link/\r\n\r\n    //mapping(uint => string) URIlist;\r\n\r\n    function mintNFT(address to, string memory tokenURI) public onlyOwner returns(uint8, string memory) {\r\n        require(lastTokenId <= 100, \"You have already minted 100 tokens.\");\r\n        lastTokenId++;\r\n        totalSupply++;\r\n        uint8 _tokenId = lastTokenId;\r\n\r\n        //add to mappings\r\n        URIlist[_tokenId] = tokenURI;\r\n        _owners[_tokenId] = msg.sender;\r\n        _balances[msg.sender]++;\r\n\r\n        return(_tokenId, \"Minted\");\r\n    }\r\n\r\n    function setNFTPrice(uint8 tokenId, uint tokenPrice) public onlyOwner returns(uint8, string memory, uint){\r\n        require(tokenId != 0 && tokenId <= lastTokenId, \"Token does not exist.\");\r\n        priceList[tokenId] = tokenPrice;\r\n        return(tokenId, \"Token price set to \", tokenPrice);\r\n    }\r\n\r\n    //  mapping(uint256 => address) internal _owners;\r\n    //  mapping(address => uint256) internal _balances;\r\n    //  mapping(uint256 => address) private _tokenApprovals;\r\n\r\n\r\n    function buyNFT(uint8 tokenId) public payable returns(string memory){\r\n        require(startSaleTime != 0 && startSaleTime < block.timestamp, \"Token sale has not started yet.\");\r\n        require(msg.value >= priceList[tokenId],\"Your payment is short.\");\r\n\r\n        address seller = _owners[tokenId];\r\n        _owners[tokenId] = msg.sender;\r\n        _balances[msg.sender]++;\r\n        _balances[seller]--;\r\n\r\n        return(\"Token sold\");\r\n    }\r\n\r\n    function vewTokenPrice(uint8 tokenId) public view returns(uint){\r\n        return(priceList[tokenId]);\r\n    }\r\n}",
  "sourcePath": "D:\\PIAIC Bootcamp (BCC)\\Truffle Projects\\ERC721Token\\contracts\\myNFT.sol",
  "compiler": {
    "name": "solc",
    "version": "0.8.4+commit.c7e474f2.Emscripten.clang"
  },
  "schemaVersion": "3.4.3",
  "updatedAt": "2021-09-06T11:31:37.344Z",
  "devdoc": {
    "kind": "dev",
    "methods": {
      "approve(address,uint256)": {
        "details": "See {IERC721-approve}."
      },
      "balanceOf(address)": {
        "details": "See {IERC721-balanceOf}."
      },
      "getApproved(uint256)": {
        "details": "See {IERC721-getApproved}."
      },
      "isApprovedForAll(address,address)": {
        "details": "See {IERC721-isApprovedForAll}."
      },
      "name()": {
        "details": "See {IERC721Metadata-name}."
      },
      "owner()": {
        "details": "Returns the address of the current owner."
      },
      "ownerOf(uint256)": {
        "details": "See {IERC721-ownerOf}."
      },
      "renounceOwnership()": {
        "details": "Leaves the contract without owner. It will not be possible to call `onlyOwner` functions anymore. Can only be called by the current owner. NOTE: Renouncing ownership will leave the contract without an owner, thereby removing any functionality that is only available to the owner."
      },
      "safeTransferFrom(address,address,uint256)": {
        "details": "See {IERC721-safeTransferFrom}."
      },
      "safeTransferFrom(address,address,uint256,bytes)": {
        "details": "See {IERC721-safeTransferFrom}."
      },
      "setApprovalForAll(address,bool)": {
        "details": "See {IERC721-setApprovalForAll}."
      },
      "supportsInterface(bytes4)": {
        "details": "See {IERC165-supportsInterface}."
      },
      "symbol()": {
        "details": "See {IERC721Metadata-symbol}."
      },
      "tokenURI(uint256)": {
        "details": "See {IERC721Metadata-tokenURI}."
      },
      "transferFrom(address,address,uint256)": {
        "details": "See {IERC721-transferFrom}."
      },
      "transferOwnership(address)": {
        "details": "Transfers ownership of the contract to a new account (`newOwner`). Can only be called by the current owner."
      }
    },
    "version": 1
  },
  "userdoc": {
    "kind": "user",
    "methods": {
      "setBaseURI(string)": {
        "notice": "3. the owner can set base URI"
      }
    },
    "version": 1
  }
}